:100000000C947A080C94227B0C94F77A0C94CC7A9A
:100010000C94A17A0C94767A0C944B7A0C94207AF6
:100020000C94F5790C94AB080C94AB080C94AB08C9
:100030000C94AB080C94AB080C94AB080C94AB0874
:100040000C94AB080C94AB080C94AB080C94AB0864
:100050000C94AB080C94AB080C94AB080C94AB79E3
:100060000C94AB080C94574F0C942D4F0C94AB0888
:100070000C94AB080C94AB080C94AB080C94AB0834
:100080000C94AB080C94AB080C94AB080C94AB0824
:100090000C94AB080C94AB080C94AB080C94A065C2
:1000A0000C94AB080C94AB080C94AB080C94AB0804
:1000B0000C94AB080C94AB080C94AB080C94AB08F4
:1000C0000C94AB080C94AB080C94AB080C94AB08E4
:1000D0000C94AB080C94AB080C94AB080C94AB08D4
:1000E0000C94AB08E63A9F22CD3AB83AE23AB83AD5
:1000F000CE3AE43AB83AE63AB83ACB3AE63AF33A84
:10010000CD3AB83AE23AB83ACE3AE43AB83AE63AB0
:10011000B83ACB3AE240AB3F963FB93FB33FAF3F2F
:10012000513F813F89708B708D708F70917093708B
:100130009570977099709B709D709F70A170A3705F
:10014000A570A77069786C785B785F786578A3781C
:10015000707874787A787E78827888788C789078DD
:10016000A37896789A789E780C948B700C94535D53
:100170000C94CD3A0C9401650C949E780C94CB3A77
:100180000C9495700C945B780C94A3700C94C977C4
:100190000C945F780C944D650C94366B0C947478C9
:1001A0000C94513F0C94983C0C9497700C9499705B
:1001B0000C9468420C94693D0C947A780C949D7070
:1001C0000C947D8C0C94BE4E0C940B4F0C943E5DA5
:1001D0000C94F1640C948C960C94E63A0C944A645A
:1001E0000C947A3B0C94633C0C9415650C94593B2D
:1001F0000C946C780C948C780C94B93F0C949F22DE
:100200000C94B83A0C9488780C94813F0C94CD648B
:100210000C94A1700C941D650C94AF3F0C94F33AB0
:100220000C9470780C94963F0C949A780C9493707C
:100230000C948D700C9469780C948F700C94675D9D
:100240000C949B700C94A64E0C94035F0C94239218
:100250000C94B4410C94834E0C94BE410C947C6578
:100260000C94A53B0C94918C0C94133B0C94F2646D
:100270000C94C7960C94AB3F0C947E780C94E2409F
:100280000C94A7700C94903B0C9496780C94657821
:100290000C9490780C94E43A0C94B93B0C94A378A9
:1002A0000C94B33F0C94BD6C0C9422920C94897006
:1002B0000C94E23A0C949F700C94924E0C949170B2
:1002C0000C94233C0C94A5700C946B3C0C94C1646E
:1002D0000C94C7770C9482780C94CE3A4E414E49D8
:1002E0004E495459494E46CDCCCC3D0AD7233C17F4
:1002F000B7D13877CC2B329595E6241FB14F0A0041
:100300000020410000C84200401C4620BCBE4CCA30
:100310001B0E5AAEC59D7400407A10F35A00A072AD
:100320004E18090010A5D4E80000E8764817000030
:10033000E40B54020000CA9A3B000000E1F50500FE
:100340000080969800000040420F000000A0860147
:10035000000000102700000000E803000000006417
:1003600000000000000A0000000000010000000082
:10037000002C76D888DC674F0823DFC1DFAE59E157
:10038000B1B796E5E3E453C63AE651997696E8E6C6
:10039000C28426EB898C9B62ED407C6FFCEFBC9C99
:1003A0009F40F2BAA56FA5F490055A2AF75C936BAB
:1003B0006CF9676DC11BFCE0E40D47FEF520E6B566
:1003C00000D0ED902E0300943577050080841E0840
:1003D0000000204E0A000000C80C333333330F985E
:1003E0006E12831141EF8D2114893BE65516CFFE25
:1003F000E6DB18D1844B381BF77C1D901DA4BBE4B1
:1004000024203284725E228100C9F124ECA1E53DF2
:10041000273C6261636B3E2020202020203C6F6BD4
:100420003E0067616C006C71642F00504C414E546B
:100430002050483A005048204452494654204649EA
:1004400058494E4700504C4541534520484F4C4475
:1004500021212100544F5050494E47204F464620FD
:10046000454300525356522050483A0050482044C9
:100470005249465420464958494E4700504C454140
:10048000534520484F4C44212100205345434F4EB3
:10049000442044454C4159003000303000525356FE
:1004A000522045433A00444F53494E4720544F5041
:1004B0004F464600444F53494E4720524547494D09
:1004C000454E003C6261636B3E2020202020203C92
:1004D0006F6B3E0020524547494D454E20444F53D7
:1004E0004553003C6E6F3E2020202020203C796543
:1004F000733E0020434F4E4649524D2052455345CE
:100500005420003C696E3E3C6F75743E203C646F25
:100510006E653E004D414E55414C20464C5553486A
:10052000494E4700002A004275696C64696E672075
:1005300043726F702E2E2E00204C4F4144494E477F
:10054000202043524F50202000504C45415345201D
:10055000484F4C4421210043524F502052455345AF
:100560005454494E4700504C4541534520484F4C48
:10057000442E2E2E00534156494E4720524547499E
:100580004D454E00454343414C4C4F57004E4F574D
:100590002046494E495348454421004543204341A4
:1005A0004C4942524154494F4E00454343414C004F
:1005B000454343414C484900454343414C4C4F5708
:1005C000004E4F572046494E49534845442100505C
:1005D000482043414C4942524154494F4E005048F3
:1005E00043414C4D494400504843414C4849005018
:1005F0004843414C4C4F5700504843414C4D4944AF
:100600000020504C4541534520484F4C442E2E2E3F
:100610002000414444494E4720524547494D454EEC
:10062000530020504C4541534520484F4C442E2EFA
:100630002E20005452494D20524547494D454E53B6
:100640000043726F70204E616D65203C646F6E6573
:100650003E00416C726561647920457869737473FA
:1006600000536F7272792C2043726F700043726F67
:1006700070204E616D65203C646F6E653E00437274
:100680006F70204E616D657300536F7272792C200C
:100690004E6F20426C616E6B003C6261636B3E206A
:1006A00020202020203C6F6B3E002053752F3031DE
:1006B000002D00504D00414D003C6261636B3E20B7
:1006C00020202020203C6F6B3E003A002D003A0095
:1006D000504D00414D0020202020202020202020AF
:1006E0003C646F6E653E0020544F205052494D458A
:1006F00020434830003C6261636B3E202020202074
:10070000203C6F6B3E0020524547494D454E2044EA
:100710004F5345530020506C6561736520486F6CE2
:10072000642E2E2E20004E65772043726F7020536A
:10073000657475700020506C6561736520486F6C3E
:10074000642E2E2E20004E65772044726976652037
:10075000466F756E6421002020504C454153452062
:10076000484F4C442020004C4F4144494E472043C1
:10077000524F502E2E2E000052455155495245449D
:10078000534400496E7365727420416E6420526553
:10079000736574005344204361726420526571751F
:1007A00069726564003C6261636B3E2020202020FA
:1007B000203C6F6B3E00504820444C5920286D6906
:1007C0006E2920003C6261636B3E202020202020A7
:1007D0003C6F6B3E002050480020003C6261636B20
:1007E0003E202020203C646F6E653E002045432F54
:1007F00030002045432F00003000303030003030D2
:10080000000030003030300030300050524556206B
:10081000524547494D454E004E4558542052454794
:10082000494D454E00504C4541534520484F4C449E
:100830002E2E2E003C6261636B3E20203C6F706563
:100840006E3E003C6261636B3E202020203C646F62
:100850006E653E003C6261636B3E202020203C6E52
:100860006578743E003C63616E63656C3E20203C9D
:100870006E6578743E0030303030303000204341B7
:100880004C2D20002043414C202D200020534F4C64
:100890005554494F4E00494E2000504C414345208D
:1008A00045432050524F4245530046524F4D20572A
:1008B00041544552204E4F57210052454D4F564509
:1008C0002050524F424553005354415254494E47D1
:1008D000204E4F57002043414C4942524154494F0A
:1008E0004E003C6261636B3E202020203C6E6578A8
:1008F000743E003C6261636B3E202020203C646FAC
:100900006E653E003C63616E63656C3E20203C6E0C
:100910006578743E002E30002043414C202D20008D
:1009200020534F4C5554494F4E00494E2000504CD7
:100930004143452050524F42455300535441525475
:10094000494E47204E4F57002043414C49425241A7
:1009500054494F4E00203C6261636B3E203C6F6BFC
:100960003E00200020003A00414D00504D003C6206
:1009700061636B3E2020202020203C6F6B3E0020D6
:10098000434F4E43454E545241544500352F360097
:10099000342F3600332F3600322F3600312F3600F9
:1009A0003C6261636B3E2020202020203C6F6B3E28
:1009B00000545046202867616C2920003C62616326
:1009C0006B3E2020202020203C6F6B3E0020544FA7
:1009D000504F46462044454C4159003C6261636B90
:1009E0003E2020202020203C6F6B3E00204D696E71
:1009F00028732920447261696E0030003939393911
:100A0000003900380037003600350034003300323A
:100A100000310030005A0059005800570056005568
:100A200000540053005200510050004F004E004D42
:100A3000004C004B004A0049004800470046004572
:100A4000004400430042004100200043726F7020C8
:100A50004E616D65203C646F6E653E004E455700EB
:100A6000490A470A450A430A410A3F0A3D0A3B0A26
:100A7000390A370A350A330A310A2F0A2D0A2B0A96
:100A8000290A270A250A230A210A1F0A1D0A1B0A06
:100A9000190A170A150A130A110A0F0A0D0A0B0A76
:100AA000090A070A050A030A010A52554E4E494E21
:100AB0004700504155534544003C6261636B3E2002
:100AC00020202020203C6F6B3E005354415455534E
:100AD0003A20003C6261636B3E2020202020203CB5
:100AE0006F6B3E0050482041444A20286D6C2920FD
:100AF000003C6261636B3E2020202020203C6F6B15
:100B00003E003000414D00504D002F002000414D6F
:100B100000504D00504D00414D00536100466900AA
:100B20005468005765005475004D6F0053750001FF
:100B300002102020080810204010204080020102EE
:100B400001080402010102040810204080804020B6
:100B500010080402018004020180402010080402F1
:100B6000010804020101020408102040800102046F
:100B7000081020408000002200250028002B002EB5
:100B8000003100340002010000050108010B0105DD
:100B9000050505070508080808020202020A0A08F6
:100BA000080404040401010101010101010303031C
:100BB0000303030303040707070C0C0C0C0C0C0CB9
:100BC0000C0202020206060606060606060B0B0BC0
:100BD0000B0B0B0B0B00002100240027002A002D1B
:100BE000003000330001010000040107010A014444
:100BF0006563004E6F76004F63740053657000416B
:100C00007567004A756C004A756E004D6179004148
:100C1000706C004D617200466562004A616E00545E
:100C2000494D455300535441525420454E44000011
:100C30005354415254454E4400534F4C5554494F20
:100C40004E005052494D452050554D500000000077
:100C50005052494D4500464C555348494E47004D6A
:100C6000414E55414C2053595354454D004D414E32
:100C7000464C55534800464C4F57204D455445521D
:100C80005300464C4F5743414C0050554D50434143
:100C90004C0050554D5020444F5345494E4700009D
:100CA000000050554D50444C5900524547494D4560
:100CB0004E5320286D6C2900414D4F554E5400571E
:100CC00045454B53005745454B5300524547494D09
:100CD000454E20444F534553004E554D42455220FA
:100CE0004F4600524547494D454E530044524149F5
:100CF0004E2054494D450044524E54494D45004103
:100D00004D4F554E5400545046414D4E5400545092
:100D100046444C590000434F4E43454E54524154B3
:100D20004500544F50204F46460054504643434ED2
:100D30005400564F4C554D4520434F4E46494700B1
:100D40005245534552564F49520052535652564FF0
:100D50004C0053544154555300524553455400528E
:100D600045534554000044454C4554450044454CCA
:100D7000455445004E4557004E4557004F50454E8F
:100D8000004F50454E00414D4F554E5420434F4E5D
:100D9000464947005048414D4E540044454C415946
:100DA00020434F4E46494755524500504820414444
:100DB0004A5553544D454E54005048444C590050E8
:100DC000482050524F4245000000504843414C00DB
:100DD00043414C4942524154450045432050524FF3
:100DE00042450000000000454343414C005048206C
:100DF00052414E474500504852414E4745004543F9
:100E00002F50504D2052414E474500454352414ED0
:100E1000474500434F4E46494755524154494F4E6E
:100E2000004441544520262054494D450044415436
:100E30004554494D450054494D45520054494D458E
:100E400052530049525249474154494F4E0049526A
:100E500052490043524F500050554D5000005055DC
:100E60004D50530053455454494E47530053595322
:100E700054454D0053595300002050483A005050FB
:100E80004D3A00200020003A001B0C170C130C0FE9
:100E90000C0B0C070C030CFF0BFB0BF70BF30BEF0E
:100EA0000B740E6D0E640E5E0E580E640E530E53D0
:100EB0000E640E4E0E430E640E3C0E360E640E2D66
:100EC0000E210E130E0B0EFE0D130EF60DED0D136F
:100ED0000EE70DDA0DD00DCA0DBF0DD00DB90DAB5B
:100EE0000D9B0D940DAB0D860D810D7C0D530E7871
:100EF0000D740D530E6D0D660D530E5F0D590D5390
:100F00000E520D530E520D4A0D400D320D2A0D2278
:100F10000D160D0E0D220D9B0D060D220DFF0CF76B
:100F20000CEC0C130EE30CD90CCB0CC50CD90CBF7C
:100F30000CB80CAA0C130EA20C920C9B0D8A0C5828
:100F40000ED00D820C760CD00D6D0C5F0C560C5033
:100F50000C420C390C300C250C1F0C5245434550EB
:100F60005441434C45200054494D45440050554D93
:100F700050200053595354454D00000020002300D9
:100F8000260029002C002F00320000010000030180
:100F90000601090100000A0B02090C0D0E080703E7
:100FA000040100000000000000000000000000003C
:100FB0000000000000000000000000000000000031
:100FC00012111000000000000000000000000000EE
:100FD00000000000000000000000504C4541534557
:100FE00020484F4C442121210046454544494E4765
:100FF00020504C414E5453003C6261636B3E2020B4
:10100000202020203C6F6B3E00204F555400494E5D
:1010100000504C4541534520484F4C44212121006C
:10102000464C555348494E4720504C414E5453006E
:10103000003C6261636B3E2020202020203C6F6BCF
:101040003E00286D6C2920706572206D696E00006D
:1010500030003030003C6261636B3E202020202055
:10106000203C6F6B3E00204D696E2873292044653B
:101070006C6179003C707265763E202020203C64D3
:101080006F6E653E003C707265763E202020203CED
:101090006E6578743E003C6261636B3E20202020C8
:1010A0003C6E6578743E006D6C00200052454749E7
:1010B0002000303030302E303000303030003030D2
:1010C00000300000303030302E30007C3C3E5E2B53
:1010D0003D3F2F5B5D3B2C2A225C00205245474957
:1010E0004D454E004D4F56494E47204F4E544F00F0
:1010F000C7968C9611241FBECFEFD1E2DEBFCDBFC5
:1011000000E00CBF2DE0A4EFB7E001C01D92A336B4
:10111000B207E1F717E0A0E0B2E0E6EEFBE401E0A1
:101120000BBF02C007900D92A43FB107D9F718E09A
:10113000C9E7D8E000E006C021970109802FFE0131
:101140000E945DA3C837D10780E00807A9F70E9475
:10115000FA920C94E1A50C9400002F923F924F92CA
:101160005F926F927F928F929F92AF92BF92CF9237
:10117000DF92EF92FF920F931F93CF93DF93CDB740
:10118000DEB7C251D6400FB6F894DEBF0FBECDBF5A
:1011900080917B00877F80937B0080E480937C003C
:1011A00080917A00806480937A0080917A00282F61
:1011B0002074322E86FDF9CF80917800209179003D
:1011C00090E0922B9093F5078093F4078B38924030
:1011D00090F40E946F7960930208709303088093E3
:1011E000040890930508609306087093070880939D
:1011F0000808909309080E946F79009102081091E5
:1012000003082091040830910508DC01CB01801B04
:10121000910BA20BB30B80319742A105B10508F4E5
:1012200004C40E946F7900914B0D10914C0D2091D8
:101230004D0D30914E0DDC01CB01801B910BA20BAB
:10124000B30B883E9340A105B10508F46FC00E941E
:10125000F78E68ED73E086EF9CE00E944D7B88235B
:1012600009F464C020E030E040E752E460911C0DD6
:1012700070911D0D80911E0D90911F0D0E9477A2FF
:1012800020E030E04AE754E40E94879E20912E0D32
:1012900030912F0D4091300D5091310D0E940BA2D5
:1012A00060932E0D70932F0D8093300D9093310D20
:1012B0002CEB30E14EE855E40E9477A26B017C01F3
:1012C00060933F0D7093400D8093410D9093420DBC
:1012D0008EEA9CE00E94714241E050E0C701B601F5
:1012E0000E94FF5186E294E00E949A502DE13AE27A
:1012F00045E55FE3C701B6010E94879E41E050E0EB
:101300000E94FF5182E294E00E949A5061E080E0E6
:101310000E94BB5081E194E00E949A5060911009B4
:1013200080910F090E94BB500E9486500E946F79E5
:1013300000910608109107082091080830910908CB
:10134000DC01CB01801B910BA20BB30B883E9340B9
:10135000A105B10508F469C360E777E086EF9CE07A
:101360000E944D7B882309F460C380913E0D81303B
:1013700009F03AC32DEC3CEC4CEC5CE36091200DA1
:101380007091210D8091220D9091230D0E941FA339
:1013900018160CF48DC080911B0D882309F488C0A9
:1013A0000E946F7900912408109125082091260849
:1013B000309127086B017C01C01AD10AE20AF30AB6
:1013C000A0911208B091130820E63AEE0E9465A39E
:1013D000C616D706E806F90608F46AC081E00E943E
:1013E0003A716B017C012091090D30910A0D4091F9
:1013F0000B0D50910C0D0E941FA3181674F0209134
:10140000050D3091060D4091070D5091080DC70153
:10141000B6010E94219E87FF4BC08EEA9CE00E948D
:10142000714285E394E00E949A5061E080E00E945E
:10143000BB508BE294E00E949A5042E050E0C7011A
:10144000B6010E94FF512091090D30910A0D409183
:101450000B0D50910C0DC701B6010E941FA3181669
:101460005CF46091140870911508809116089091B1
:1014700017084AE050E018C02091050D3091060D84
:101480004091070D5091080DC701B6010E94219EA1
:1014900087FF0CC0609114087091150880911608A0
:1014A0009091170849E050E00E9446990E94699681
:1014B0002DEC3CEC4CEC5CE360911C0D70911D0D2F
:1014C00080911E0D90911F0D0E941FA318160CF401
:1014D00073C080911B0D823009F06EC00E946F793D
:1014E00000912408109125082091260830912708A2
:1014F0006B017C01C01AD10AE20AF30AA09112081A
:10150000B091130820E63AEE0E9465A3C616D706EE
:10151000E806F90608F450C00E946F790091280887
:101520001091290820912A0830912B086B017C0129
:10153000C01AD10AE20AF30A20910B0830E0A0E6B3
:10154000BAEE0E94FBA1C616D706E806F906A0F17E
:1015500081E00E943A714B015C0183E00E943A7184
:101560006B017C018091090D90910A0DA0910B0DEA
:10157000B0910C0DC15FD94F88839983AA83BB8337
:10158000CF50D6409C01AD01C701B6010E941FA3F8
:10159000181694F04090050D5090060D6090070DC0
:1015A0007090080DA3019201C701B6010E94219E0F
:1015B00087FD02C00C9485372DEC3CEC4CEC5CE3D1
:1015C00060911C0D70911D0D80911E0D90911F0D4D
:1015D0000E941FA318160CF472C02DEC3CEC4CECCE
:1015E0005CE36091200D7091210D8091220D90910E
:1015F000230D0E941FA318160CF461C00E946F797E
:101600000091200810912108209122083091230890
:101610006B017C01C01AD10AE20AF30AA0911208F8
:10162000B091130820E63AEE0E9465A3C616D706CD
:10163000E806F90608F443C083E00E943A716B01A2
:101640007C012091090D30910A0D40910B0D5091B4
:101650000C0D0E941FA3181674F02091050D3091F7
:10166000060D4091070D5091080DC701B6010E946B
:10167000219E87FF24C08EEA9CE00E9471428CE686
:1016800094E00E949A5061E080E00E94BB5083E6A3
:1016900094E00E949A5042E050E0C701B6010E94D7
:1016A000FF5160911408709115088091160890916F
:1016B000170848E050E00E9446990E9469962DEC78
:1016C0003CEC4CE45DE360911C0D70911D0D80912C
:1016D0001E0D90911F0D0E941FA318160CF484C1BB
:1016E00080911B0D823009F47FC10E946F790091B7
:1016F0002008109121082091220830912308AB0185
:10170000BC01401B510B620B730B209112083091EE
:101710001308ECE3E29FC001E39F900D1124092E12
:10172000000CAA0BBB0B481759076A077B0708F484
:101730005BC183E00E943A716B017C012091090D2D
:1017400030910A0D40910B0D50910C0D0E941FA37A
:1017500018160CF449C12091050D3091060D4091E9
:10176000070D5091080DC701B6010E94219E87FD0B
:101770003BC18CE293E0CB5CDC4F99838883C553FB
:10178000D340C550DC4F19821882CB5FD340CE01C5
:101790008B5C9C4F0E94FD46C15FD94F9983888323
:1017A000CF50D6408AE193E0CB5FDD4F99838883A9
:1017B000C550D240CD5CDC4F19821882C353D34050
:1017C000CE018B5F9D4F0E94EB477C0101E010E052
:1017D00083EEC82E83E0D82EB02E8EEA9CE00E94C5
:1017E000714280911B0D811103C084EB94E004C011
:1017F000813021F486EA94E00E949A5061E080E012
:101800000E94BB508DE994E00E949A5082E00E94B1
:10181000AB700E94D5520E94905084E193E09A836D
:101820008983CD5FDD4F19821882C350D240409129
:101830003D0D6B2DCE0101960E94174D60EE73E0B9
:10184000DC0112968D919C9113970E946B830097F7
:1018500031F004960E945F6E4B015C0103C0812C45
:10186000912C540120E030E040EC50E4C501B4017B
:101870000E9477A22B013C016091100870E080E08B
:1018800090E00E94289E9B01AC01C301B2010E941E
:10189000879E20911B0D21110BC020919A08309139
:1018A0009B0840919C0850919D08C501B40108C057
:1018B00020919A0830919B0840919C0850919D0876
:1018C0000E94879EA8010E94469907301105E1F504
:1018D00080911B0D81111CC08091110860E070E0A7
:1018E00090E00E940A9980E090E00E94909881E048
:1018F00080931B0DC350DC4FF982E882CD5FD3404B
:10190000C150DC4FD982C882CF5FD34061E012C0A2
:101910008130A9F482E080931B0DC350DC4FF98223
:10192000E882CD5FD340C150DC4FD982C882CF5FFF
:10193000D34062E0CE0183509C4F0E94176461E067
:10194000C7010E94E96F4AC06CEE73E0C15FD94FD6
:10195000E881F981CF50D640828193810E946B83C8
:10196000009721F004960E94916E01C060E0FCE3B4
:101970006F9F5001112481E0A81AB10878F18EEA16
:101980009CE00E9471422AE0A216B1041CF48AE98C
:1019900094E006C044E6A416B10424F488E994E077
:1019A0000E949A50C5010E94D5528AE894E00E9494
:1019B0009A5061E080E00E94BB508CE794E00E9466
:1019C0009A500E94905068EE73E080E090E00E9490
:1019D000357981E19BE00E940B4FCDCF0F5F1F4F08
:1019E0000830110509F0F8CE0E946F7900910608C1
:1019F000109107082091080830910908DC01CB01FB
:101A0000801B910BA20BB30B803D9740A105B10544
:101A100060F00E94D1800E946F79609306087093F5
:101A200007088093080890930908109199080E946C
:101A30007C53CB53DA4F2883C55CD540CA53DA4F69
:101A40003883C65CD540C953DA4F4883C75CD5405C
:101A5000C853DA4F5883C85CD540C753DA4F688300
:101A6000C95CD540C653DA4F7883CA5CD540C553AC
:101A7000DA4F8883CB5CD540C453DA4F9883CC5C73
:101A8000D540131771F10E94E67E0E947C53C35427
:101A9000DA4F2883CD5BD540C254DA4F3883CE5B12
:101AA000D540C154DA4F4883CF5BD540C054DA4F9C
:101AB0005883C05CD540CF53DA4F6883C15CD540B2
:101AC000CE53DA4F7883C25CD540CD53DA4F88834A
:101AD000C35CD540CC53DA4F9883C45CD540309377
:101AE00099084090F4075090F5074114510439F0DB
:101AF000F8E94F16F1E05F0611F00C949F1962EFC0
:101B000073E086EF9CE00E944D7B882309F4A7C018
:101B10004CEF52E062E070E09E0127523A4F8E0196
:101B20000F5F1F4FC8010E94E1914AEF52E062E04F
:101B300070E09E012D523A4FCE0108960E94E1912D
:101B400048EF52E062E070E09E0123533A4FCE012D
:101B50000F960E94E19146EF52E062E070E09E0134
:101B60002E553A4FCE0146960E94E191A80164E0BD
:101B700070E06E012BECC21A2CEFD20A9E0129579D
:101B80003A4FC6010E947F9144EF52E062E070E05C
:101B90007E018BEFE81A8DEFF80A9E0124593A4F27
:101BA000C7010E94E19142EF52E062E070E037012C
:101BB00097E0690E711C9E012F5A3A4FC3010E9493
:101BC000E19140EF52E062E070E05701AEE0AA0E12
:101BD000B11C9E01235D3A4FC5010E94E191A7010E
:101BE00063E070E04601B7E08B0E911C9E01275127
:101BF0003B4FC4010E947F91A60162E070E09E010C
:101C00002B553B4FCE0183509C4F0E941D91CE011E
:101C100083509C4F0E943D4ACE0183509C4F0E94AE
:101C2000FA90C4010E94D790C6010E94D790C501C6
:101C30000E94D290C3010E94D290C7010E94D2900C
:101C4000CE0146960E94D290CE010F960E94D2906D
:101C5000CE0108960E94D290C8010E94D2906BEFEC
:101C600073E086EF9CE00E944D7B882309F45CC002
:101C70004EEE52E062E070E08E010B5C1C4F9E0164
:101C800024593A4FC8010E94E191A80161E070E037
:101C90009E012F5A3A4FFE0131966F01CF010E94EB
:101CA0007F914CEE52E062E070E07E01FBEFEF1AB4
:101CB000FDEFFF0A9E01235D3A4FC7010E94E191AB
:101CC000A70161E070E09E0127513B4FCE010896CD
:101CD0000E947F91A60162E070E09E012B553B4F70
:101CE000CE0183509C4F0E941D91CE0183509C4F8A
:101CF0000E943D4ACE0183509C4F0E94FA90CE0133
:101D000008960E94D790C6010E94D790C7010E94F2
:101D1000D290C8010E94D290452831F480E090E032
:101D20000E94D76D0E9486506FEF73E086EF9CE0B3
:101D30000E944D7B882309F464C04AEE52E062E0C1
:101D400070E07E012BECE21A2CEFF20A9E0129577B
:101D50003A4FC7010E94E191A70161E070E08E0156
:101D60000B5F1D4F9E0124593A4FC8010E947F917D
:101D700048EE52E062E070E09E012F5A3A4FCE01E9
:101D800001966C010E94E19146EE52E062E070E043
:101D90009E01235D3A4FCE0108960E94E191A60173
:101DA00062E070E0580197E0A90EB11C9E01275136
:101DB0003B4FC5010E947F91A80162E070E09E0147
:101DC0002B553B4FCE0183509C4F0E941D91CE015D
:101DD00083509C4F0E943D4ACE0183509C4F0E94ED
:101DE000FA90C5010E94D790C8010E94D790CE01F9
:101DF00008960E94D290C6010E94D290C7010E940C
:101E0000D29064E074E086EF9CE00E944D7B8823D2
:101E100009F465C044EE52E062E070E07E01ABEC94
:101E2000EA1AACEFFA0A9E0129573A4FC7010E94FD
:101E3000E191A70161E070E08E010B5F1D4F9E01F3
:101E400024593A4FC8010E947F9142EE52E062E06D
:101E500070E09E012F5A3A4FFE0131966F01CF017B
:101E60000E94E19140EE52E062E070E09E01235D4D
:101E70003A4FCE0108960E94E191A60162E070E01F
:101E80005801F7E0AF0EB11C9E0127513B4FC50131
:101E90000E947F91A80162E070E09E012B553B4FAC
:101EA000CE0183509C4F0E941D91CE0183509C4FC8
:101EB0000E943D4ACE0183509C4F0E94FA90C5017A
:101EC0000E94D790C8010E94D790CE0108960E9428
:101ED000D290C6010E94D290C7010E94D2906AE0BF
:101EE00074E086EF9CE00E944D7B882309F464C077
:101EF0004EED52E062E070E07E012BECE21A2CEF36
:101F0000F20A9E0129573A4FC7010E94E191A701A9
:101F100061E070E08E010B5F1D4F9E0124593A4F26
:101F2000C8010E947F914CED52E062E070E09E019A
:101F30002F5A3A4FCE0101966C010E94E1914AED71
:101F400052E062E070E09E01235D3A4FCE010896B8
:101F50000E94E191A60162E070E0580197E0A90EAD
:101F6000B11C9E0127513B4FC5010E947F91A801E2
:101F700062E070E09E012B553B4FCE0183509C4F99
:101F80000E941D91CE0183509C4F0E943D4ACE017C
:101F900083509C4F0E94FA90C5010E94D790C801BF
:101FA0000E94D790CE0108960E94D290C6010E944E
:101FB000D290C7010E94D29061E174E086EF9CE06C
:101FC0000E944D7B882309F485C048ED52E062E011
:101FD00070E09E0123533A4FDE0111966D01CD0151
:101FE0000E94E19146ED52E062E070E09E012E55C4
:101FF0003A4FCE0108960E94E19144ED52E062E032
:1020000070E09E0129573A4FCE010F960E94E19150
:10201000A60163E070E07E01BBECEB1ABCEFFB0AAB
:102020009E0124593A4FC7010E947F9142ED52E030
:1020300062E070E08E010B5F1D4F9E012F5A3A4FF8
:10204000C8010E94E19140ED52E062E070E0580169
:10205000E7E0AE0EB11C9E01235D3A4FC5010E9420
:10206000E191A80162E070E04701F7E08F0E911C5A
:102070009E0127513B4FC4010E947F91A70162E05E
:1020800070E09E012B553B4FCE0183509C4F0E9428
:102090001D91CE0183509C4F0E943D4ACE0183503A
:1020A0009C4F0E94FA90C4010E94D790C7010E94E1
:1020B000D790C5010E94D290C8010E94D290CE0153
:1020C0000F960E94D290CE0108960E94D290C6012F
:1020D0000E94D29069E174E086EF9CE00E944D7B03
:1020E000882309F476C04EEC52E062E070E08E0185
:1020F0000B5F1D4F9E012E553A4FC8010E94E19182
:102100004CEC52E062E070E0580127E0A20EB11CF6
:102110009E0129573A4FC5010E94E191A80162E052
:1021200070E07E018BECE81A8CEFF80A9E012459CE
:102130003A4FC7010E947F914AEC52E062E070E0A2
:102140009E012F5A3A4FDE0111966D01CD010E947A
:10215000E19148EC52E062E070E09E01235D3A4F6D
:10216000CE0108960E94E191A60162E070E047016D
:10217000B7E08B0E911C9E0127513B4FC4010E947A
:102180007F91A70162E070E09E012B553B4FCE018D
:1021900083509C4F0E941D91CE0183509C4F0E9402
:1021A0003D4ACE0183509C4F0E94FA90C4010E9488
:1021B000D790C7010E94D790CE0108960E94D29076
:1021C000C6010E94D290C5010E94D290C8010E940F
:1021D000D29061E274E086EF9CE00E944D7B882300
:1021E00009F464C046EC52E062E070E07E01EBEC82
:1021F000EE1AECEFFE0A9E0129573A4FC7010E94E2
:10220000E191A70161E070E08E010B5F1D4F9E011F
:1022100024593A4FC8010E947F9144EC52E062E099
:1022200070E09E012F5A3A4FCE0101966C010E9438
:10223000E19142EC52E062E070E09E01235D3A4F92
:10224000CE0108960E94E191A60162E070E058017B
:1022500097E0A90EB11C9E0127513B4FC5010E947A
:102260007F91A80162E070E09E012B553B4FCE01AB
:1022700083509C4F0E941D91CE0183509C4F0E9421
:102280003D4ACE0183509C4F0E94FA90C5010E94A6
:10229000D790C8010E94D790CE0108960E94D29094
:1022A000C6010E94D290C7010E94D29067E274E0FA
:1022B00086EF9CE00E944D7B882309F465C040ECCA
:1022C00052E062E070E07E01ABECEA1AACEFFA0A91
:1022D0009E0129573A4FC7010E94E191A70161E091
:1022E00070E08E010B5F1D4F9E0124593A4FC801CB
:1022F0000E947F914EEB52E062E070E09E012F5A07
:102300003A4FFE0131966F01CF010E94E1914CEBF3
:1023100052E062E070E09E01235D3A4FCE010896E4
:102320000E94E191A60162E070E05801F7E0AF0E73
:10233000B11C9E0127513B4FC5010E947F91A8010E
:1023400062E070E09E012B553B4FCE0183509C4FC5
:102350000E941D91CE0183509C4F0E943D4ACE01A8
:1023600083509C4F0E94FA90C5010E94D790C801EB
:102370000E94D790CE0108960E94D290C6010E947A
:10238000D290C7010E94D29068ED73E086EF9CE086
:102390000E944D7B882309F464C04AEB52E062E05E
:1023A00070E07E012BECE21A2CEFF20A9E01295715
:1023B0003A4FC7010E94E191A70161E070E08E01F0
:1023C0000B5F1D4F9E0124593A4FC8010E947F9117
:1023D00048EB52E062E070E09E012F5A3A4FCE0186
:1023E00001966C010E94E19146EB52E062E070E0E0
:1023F0009E01235D3A4FCE0108960E94E191A6010D
:1024000062E070E0580197E0A90EB11C9E012751CF
:102410003B4FC5010E947F91A80162E070E09E01E0
:102420002B553B4FCE0183509C4F0E941D91CE01F6
:1024300083509C4F0E943D4ACE0183509C4F0E9486
:10244000FA90C5010E94D790C8010E94D790CE0192
:1024500008960E94D290C6010E94D290C7010E94A5
:10246000D2906EE274E086EF9CE00E944D7B882360
:1024700009F465C044EB52E062E070E07E01ABEC31
:10248000EA1AACEFFA0A9E0129573A4FC7010E9497
:10249000E191A70161E070E08E010B5F1D4F9E018D
:1024A00024593A4FC8010E947F9142EB52E062E00A
:1024B00070E09E012F5A3A4FFE0131966F01CF0115
:1024C0000E94E19140EB52E062E070E09E01235DEA
:1024D0003A4FCE0108960E94E191A60162E070E0B9
:1024E0005801F7E0AF0EB11C9E0127513B4FC501CB
:1024F0000E947F91A80162E070E09E012B553B4F46
:10250000CE0183509C4F0E941D91CE0183509C4F61
:102510000E943D4ACE0183509C4F0E94FA90C50113
:102520000E94D790C8010E94D790CE0108960E94C1
:10253000D290C6010E94D290C7010E94D29067E358
:1025400074E086EF9CE00E944D7B882309F464C010
:102550004EEA52E062E070E07E012BECE21A2CEFD2
:10256000F20A9E0129573A4FC7010E94E191A70143
:1025700061E070E08E010B5F1D4F9E0124593A4FC0
:10258000C8010E947F914CEA52E062E070E09E0137
:102590002F5A3A4FCE0101966C010E94E1914AEA0E
:1025A00052E062E070E09E01235D3A4FCE01089652
:1025B0000E94E191A60162E070E0580197E0A90E47
:1025C000B11C9E0127513B4FC5010E947F91A8017C
:1025D00062E070E09E012B553B4FCE0183509C4F33
:1025E0000E941D91CE0183509C4F0E943D4ACE0116
:1025F00083509C4F0E94FA90C5010E94D790C80159
:102600000E94D790CE0108960E94D290C6010E94E7
:10261000D290C7010E94D2906FE374E086EF9CE0F5
:102620000E944D7B882309F465C048EA52E062E0CD
:1026300070E07E01ABECEA1AACEFFA0A9E01295772
:102640003A4FC7010E94E191A70161E070E08E015D
:102650000B5F1D4F9E0124593A4FC8010E947F9184
:1026600046EA52E062E070E09E012F5A3A4FFE01C6
:1026700031966F01CF010E94E19144EA52E062E09D
:1026800070E09E01235D3A4FCE0108960E94E191D1
:10269000A60162E070E05801F7E0AF0EB11C9E01A8
:1026A00027513B4FC5010E947F91A80162E070E075
:1026B0009E012B553B4FCE0183509C4F0E941D9194
:1026C000CE0183509C4F0E943D4ACE0183509C4FC7
:1026D0000E94FA90C5010E94D790C8010E94D7902D
:1026E000CE0108960E94D290C6010E94D290C701E6
:1026F0000E94D29067E474E086EF9CE00E944D7BDC
:10270000882309F464C042EA52E062E070E07E018E
:102710002BECE21A2CEFF20A9E0129573A4FC7011F
:102720000E94E191A70161E070E08E010B5F1D4FF7
:102730009E0124593A4FC8010E947F9140EA52E01D
:1027400062E070E09E012F5A3A4FCE0101966C0173
:102750000E94E1914EE952E062E070E09E01235D4B
:102760003A4FCE0108960E94E191A60162E070E026
:10277000580197E0A90EB11C9E0127513B4FC5019E
:102780000E947F91A80162E070E09E012B553B4FB3
:10279000CE0183509C4F0E941D91CE0183509C4FCF
:1027A0000E943D4ACE0183509C4F0E94FA90C50181
:1027B0000E94D790C8010E94D790CE0108960E942F
:1027C000D290C6010E94D290C7010E94D2906EE4BE
:1027D00074E086EF9CE00E944D7B882309F465C07D
:1027E0004CE952E062E070E07E01ABECEA1AACEF3B
:1027F000FA0A9E0129573A4FC7010E94E191A701A9
:1028000061E070E08E010B5F1D4F9E0124593A4F2D
:10281000C8010E947F914AE952E062E070E09E01A7
:102820002F5A3A4FFE0131966F01CF010E94E1917C
:1028300048E952E062E070E09E01235D3A4FCE012C
:1028400008960E94E191A60162E070E05801F7E06D
:10285000AF0EB11C9E0127513B4FC5010E947F91D5
:10286000A80162E070E09E012B553B4FCE018350E2
:102870009C4F0E941D91CE0183509C4F0E943D4A67
:10288000CE0183509C4F0E94FA90C5010E94D790C0
:10289000C8010E94D790CE0108960E94D290C6012E
:1028A0000E94D290C7010E94D29066E574E086EF44
:1028B0009CE00E944D7B882309F464C046E952E005
:1028C00062E070E07E012BECE21A2CEFF20A9E012E
:1028D00029573A4FC7010E94E191A70161E070E0DA
:1028E0008E010B5F1D4F9E0124593A4FC8010E9473
:1028F0007F9144E952E062E070E09E012F5A3A4F26
:10290000CE0101966C010E94E19142E952E062E041
:1029100070E09E01235D3A4FCE0108960E94E1913E
:10292000A60162E070E0580197E0A90EB11C9E017B
:1029300027513B4FC5010E947F91A80162E070E0E2
:102940009E012B553B4FCE0183509C4F0E941D9101
:10295000CE0183509C4F0E943D4ACE0183509C4F34
:102960000E94FA90C5010E94D790C8010E94D7909A
:10297000CE0108960E94D290C6010E94D290C70153
:102980000E94D2906EE574E086EF9CE00E944D7B41
:10299000882309F465C040E952E062E070E07E01FE
:1029A000ABECEA1AACEFFA0A9E0129573A4FC7017D
:1029B0000E94E191A70161E070E08E010B5F1D4F65
:1029C0009E0124593A4FC8010E947F914EE852E07F
:1029D00062E070E09E012F5A3A4FFE0131966F017E
:1029E000CF010E94E1914CE852E062E070E09E016C
:1029F000235D3A4FCE0108960E94E191A60162E064
:102A000070E05801F7E0AF0EB11C9E0127513B4F1B
:102A1000C5010E947F91A80162E070E09E012B55E4
:102A20003B4FCE0183509C4F0E941D91CE0183509D
:102A30009C4F0E943D4ACE0183509C4F0E94FA90C9
:102A4000C5010E94D790C8010E94D790CE01089678
:102A50000E94D290C6010E94D290C7010E94D290DB
:102A600065E674E086EF9CE00E944D7B882309F4C4
:102A700064C04AE852E062E070E07E012BECE21AAA
:102A80002CEFF20A9E0129573A4FC7010E94E191AB
:102A9000A70161E070E08E010B5F1D4F9E0124597C
:102AA0003A4FC8010E947F9148E852E062E070E02E
:102AB0009E012F5A3A4FCE0101966C010E94E1917E
:102AC00046E852E062E070E09E01235D3A4FCE019D
:102AD00008960E94E191A60162E070E0580197E03B
:102AE000A90EB11C9E0127513B4FC5010E947F9149
:102AF000A80162E070E09E012B553B4FCE01835050
:102B00009C4F0E941D91CE0183509C4F0E943D4AD4
:102B1000CE0183509C4F0E94FA90C5010E94D7902D
:102B2000C8010E94D790CE0108960E94D290C6019B
:102B30000E94D290C7010E94D2906DE674E086EFA9
:102B40009CE00E944D7B882309F454C044E852E085
:102B500062E070E08E010B5C1C4F9E0124593A4FDD
:102B6000C8010E94E191A80161E070E09E012F5A26
:102B70003A4FDE0111966D01CD010E947F9142E82E
:102B800052E062E070E07E01BBEFEB1ABDEFFB0AA2
:102B90009E01235D3A4FC7010E94E191A70161E0C8
:102BA00070E09E0127513B4FCE0108960E947F9115
:102BB000A60162E070E09E012B553B4FCE01835091
:102BC0009C4F0E941D91CE0183509C4F0E943D4A14
:102BD000CE0183509C4F0E94FA90CE0108960E942D
:102BE000D790C6010E94D790C7010E94D290C80119
:102BF0000E94D29063E774E086EF9CE00E944D7BD8
:102C0000882309F49AC040E852E062E070E09E0137
:102C100027523A4FFE0131966F01CF010E94E19198
:102C20004EE752E062E070E09E012D523A4FCE0135
:102C300008960E94E1914CE752E062E070E09E014C
:102C400023533A4FCE010F960E94E1914AE752E09A
:102C500062E070E09E012E553A4FCE0146960E94EA
:102C6000E19148E752E062E070E09E0129573A4F57
:102C7000CE014D960E94E191A60165E070E07E01D3
:102C8000FBECEF1AFCEFFF0A9E0124593A4FC701F3
:102C90000E947F9146E752E062E070E08E010B5F98
:102CA0001D4F9E012F5A3A4FC8010E94E19144E7FF
:102CB00052E062E070E0580127E0A20EB11C9E01D4
:102CC000235D3A4FC5010E94E191A80162E070E0E6
:102CD000470187E0880E911C9E0127513B4FC4019C
:102CE0000E947F91A70162E070E09E012B553B4F4F
:102CF000CE0183509C4F0E941D91CE0183509C4F6A
:102D00000E943D4ACE0183509C4F0E94FA90C4011C
:102D10000E94D790C7010E94D790C5010E94D2900F
:102D2000C8010E94D290015E114007501109C801EC
:102D30000E94D2900C151D05C1F76CE774E086EF78
:102D40009CE00E944D7B81110C94FE3764E874E096
:102D500086EF9CE00E944D7B81110C94FE376CE85D
:102D600074E086EF9CE00E944D7B81110C94FE374D
:102D700064E974E086EF9CE00E944D7B81110C9425
:102D8000FE376CE974E086EF9CE00E944D7B88235F
:102D900009F476C046E652E062E070E08E010B5F17
:102DA0001D4F9E012E553A4FC8010E94E19144E605
:102DB00052E062E070E0580197E0A90EB11C9E015C
:102DC00029573A4FC5010E94E191A80162E070E0E5
:102DD0007E01ABECEA1AACEFFA0A9E0124593A4F95
:102DE000C7010E947F9142E652E062E070E09E01DE
:102DF0002F5A3A4FFE0131966F01CF010E94E191A7
:102E000040E652E062E070E09E01235D3A4FCE0161
:102E100008960E94E191A60162E070E04701F7E0A8
:102E20008F0E911C9E0127513B4FC4010E947F9140
:102E3000A70162E070E09E012B553B4FCE0183500D
:102E40009C4F0E941D91CE0183509C4F0E943D4A91
:102E5000CE0183509C4F0E94FA90C4010E94D790EB
:102E6000C7010E94D790CE0108960E94D290C60159
:102E70000E94D290C5010E94D290C8010E94D290B7
:102E800064EA74E086EF9CE00E944D7B81110C9413
:102E900094386AEA74E086EF9CE00E944D7B8111D1
:102EA0000C94943863EB74E086EF9CE00E944D7BB9
:102EB00081110C9494386BEB74E086EF9CE00E94D7
:102EC0004D7B811111C061EC74E086EF9CE00E94A3
:102ED0004D7B811109C06AEC74E086EF9CE00E9492
:102EE0004D7B882309F4A5C048E552E062E070E01C
:102EF0009E0121523A4FDE0111966D01CD010E94D3
:102F0000E19146E552E062E070E09E0127523A4FBF
:102F1000CE0108960E94E19144E552E062E070E043
:102F20009E012D523A4FCE010F960E94E19142E54B
:102F300052E062E070E09E0123533A4FCE01469684
:102F40000E94E19140E552E062E070E09E012E5562
:102F50003A4FCE014D960E94E1914EE452E062E07C
:102F600070E09E0129573A4FCE0184960E94E1916C
:102F7000A60166E070E07E01BBECEB1ABCEFFB0A39
:102F80009E0124593A4FC7010E947F914CE452E0C0
:102F900062E070E08E010B5F1D4F9E012F5A3A4F89
:102FA000C8010E94E1914AE452E062E070E05801F9
:102FB000E7E0AE0EB11C9E01235D3A4FC5010E94B1
:102FC000E191A80162E070E04701F7E08F0E911CEB
:102FD0009E0127513B4FC4010E947F91A70162E0EF
:102FE00070E09E012B553B4FCE0183509C4F0E94B9
:102FF0001D91CE0183509C4F0E943D4ACE018350CB
:103000009C4F0E94FA90C4010E94D790C7010E9471
:10301000D790C5010E94D290C8010E94D2900A5D4B
:10302000114007501109C8010E94D2900C151D05CE
:10303000C1F762ED74E086EF9CE00E944D7B88232F
:1030400009F473C048E452E062E070E07E012BECCA
:10305000E21A2CEFF20A9E012E553A4FC7010E9448
:10306000E191A70161E070E08E010B5F1D4F9E01B1
:1030700029573A4FC8010E947F9146E452E062E02E
:1030800070E09E0124593A4FCE0101966C010E94D6
:10309000E19144E452E062E070E09E012F5A3A4F21
:1030A000CE0108960E94E19142E452E062E070E0B5
:1030B0009E01235D3A4FCE010F960E94E191A60139
:1030C00063E070E0580197E0A90EB11C9E01275102
:1030D0003B4FC5010E947F91A80162E070E09E0114
:1030E0002B553B4FCE0183509C4F0E941D91CE012A
:1030F00083509C4F0E943D4ACE0183509C4F0E94BA
:10310000FA90C5010E94D790C8010E94D790CE01C5
:103110000F960E94D290CE0108960E94D290C601CE
:103120000E94D290C7010E94D2902091F407309162
:10313000F50780910F092115310511F48F5F01C04A
:10314000815080930F092839314009F06DC060E744
:1031500077E086EF9CE00E944D7B882309F464C0F1
:103160008091E50C9091E60CBC01615071096817E3
:10317000790720F481EE9CE00E94794210920E0DB6
:10318000CE018B5C9C4F0E9464876BED74E0CE0196
:103190008B5F9D4F0E947A7D61E17CE0CE018B5F69
:1031A0009D4F0E94167C63EE74E00E94FD7BBE0181
:1031B0006B5C7C4F0E94167C41E0BC01CE01019605
:1031C0000E94C24FCE0101960E94D050CE018B5F6B
:1031D0009D4F0E940A7DCE018B5C9C4F0E940A7D10
:1031E00066EC7CE0CE0101960E942692CE0101960B
:1031F0000E944D8686EC9CE00E9443418EEA9CE052
:103200000E9471426091E80C7091E90CCE01019628
:103210000E94717DCE0101960E94EF7FCE01019642
:103220000E940A7D0E94BD800091F4071091F5076D
:103230000115110569F00839B1E01B0709F079C0E3
:1032400060E777E086EF9CE00E944D7B811171C0C2
:103250006091EF0C7091F00CDB0114962D913C9174
:1032600015971B964D915C911C970D90BC91A02DCC
:10327000ED91FC911197F08087E0E82EE29EF0013D
:10328000E39EF00D11243797EA0FFB1F8081918197
:103290000480F581E02DE80FF91F3197D080E0918F
:1032A000F30CF091F40CEE9EC001EF9E900D1124F2
:1032B0000797860F971FFC01A080B18064817581FC
:1032C000E69EC001E79E900D112407978A0D9B1D75
:1032D000FC016081718184819581860F971F019720
:1032E000FC018081F50160817181FB019081609119
:1032F000100961110C943A3940910F094F1510F0E3
:103300000C94FA3880930F0981E080931009609142
:103310001009FD01379740E050E03327421753076B
:1033200014F40C9405396091100980910F090E94E2
:10333000BB506AEF70E080E090E00E9435798091A8
:10334000F4079091F5078336910539F08F3F910589
:1033500009F05AC20FEF1FEF02C001E010E062EF68
:1033600073E086EF9CE00E944D7B882359F08091AA
:103370001009882321F080910F09813019F4C801C8
:103380000E943E616BEF73E086EF9CE00E944D7BF4
:10339000882319F0C8010E94D76D6FEF73E086EFA4
:1033A0009CE00E944D7B882359F080910F09811188
:1033B00007C080911009811103C0C8010E94D9582B
:1033C0006AE074E086EF9CE00E944D7B882359F010
:1033D00080910F09883039F480911009811103C060
:1033E000C8010E94826D6EE274E086EF9CE00E944C
:1033F0004D7B8823D9F180910F098130B9F58091F7
:103400001009811133C08091BC0B9091BD0B800FCE
:10341000911F1816190614F081E090E09093BD0BEF
:103420008093BC0B8EEA9CE00E9471428091BC0BA1
:103430009091BD0B0A9724F480E090E00E94D55251
:103440008091BC0B9091BD0B0E94D55284ED94E00D
:103450000E949A5061E080E00E94BB5083EC94E0AF
:103460000E949A5060E081E00E94BB5067E374E0E4
:1034700086EF9CE00E944D7B882359F080910F09D4
:10348000823039F480911009811103C0C8010E9473
:1034900049856FE374E086EF9CE00E944D7B8823B2
:1034A00059F080910F09823039F48091100981110F
:1034B00003C0C8010E94FE8467E474E086EF9CE0CC
:1034C0000E944D7B882359F080910F098C3039F48C
:1034D00080911009811103C0C8010E9487836EE4A6
:1034E00074E086EF9CE00E944D7B882359F0809128
:1034F0000F09811107C080911009811103C0C80113
:103500000E94966066E574E086EF9CE00E944D7B29
:10351000882359F080910F098F3039F48091100978
:10352000811103C0C8010E94E65F6EE574E086EF7A
:103530009CE00E944D7B882359F080910F098230D6
:1035400039F480911009811103C0C8010E94B95F4C
:1035500065E674E086EF9CE00E944D7B882359F07D
:1035600080910F09813039F480911009811103C0D5
:10357000C8010E944E5F6DE674E086EF9CE00E94F9
:103580004D7B8823D1F080910F09811116C0809165
:103590001009811112C080910D0D61E090E00E9430
:1035A000767068EE73E080E090E00E94357980915B
:1035B0000D0D60E090E00E94767063E774E086EFA6
:1035C0009CE00E944D7B882391F080910F09982FF9
:1035D000977F51F0833041F0853031F08D3039F4F0
:1035E00080911009811103C0C8010E9454726CE7D8
:1035F00074E086EF9CE00E944D7B811118C064E866
:1036000074E086EF9CE00E944D7B811110C06CE855
:1036100074E086EF9CE00E944D7B811108C064E954
:1036200074E086EF9CE00E944D7B882391F08091AE
:103630000F09813011F40C949C39863011F40C94EC
:103640009C398B3011F40C949C398E3011F40C940D
:1036500097396CE974E086EF9CE00E944D7B8823EB
:1036600069F080910F09853031F08D3039F4809107
:103670001009811103C0C8010E94E08261E174E079
:1036800086EF9CE00E944D7B882379F080910F09A2
:10369000833041F0883031F08F3039F48091100957
:1036A000811103C0C8010E94345969E174E086EFBA
:1036B0009CE00E944D7B882399F080910F09833014
:1036C00031F0893069F480911009811109C0B80185
:1036D000012E000C880B990B0E94289E0E94855B8E
:1036E00061E274E086EF9CE00E944D7B882359F0F4
:1036F00080910F098F3039F480911009811103C036
:10370000C8010E94D85C67E274E086EF9CE00E94EA
:103710004D7B882359F080910F098F3039F48091C7
:103720001009811103C0C8010E94D16C6BEB74E0D9
:1037300086EF9CE00E944D7BF82E811111C061EC58
:1037400074E086EF9CE00E944D7B811109C06AEC19
:1037500074E086EF9CE00E944D7B882309F443C00F
:103760008091100981113FC0FF2079F065EE74E06F
:10377000CE0101960E947A7DB801CE0101960E9489
:10378000D056CE0101960E940A7D61EC74E086EF6E
:103790009CE00E944D7B882379F066EC74E0CE01BA
:1037A00001960E947A7DB801CE0101960E94D05602
:1037B000CE0101960E940A7D6AEC74E086EF9CE0DF
:1037C0000E944D7B882379F069EE74E0CE0101966A
:1037D0000E947A7DB801CE0101960E94D056CE019A
:1037E00001960E940A7D60E777E086EF9CE00E94E8
:1037F0004D7B882319F0C8010E9427876AEF70E08B
:1038000080E090E00E9435798091F4079091F5076F
:103810008F37924011F00C94F93A60E777E086EF29
:103820009CE00E944D7B882309F4C3C58EEA9CE08E
:103830000E94714280910E0D0091E80C1091E90CEC
:10384000F6E08F9F000D111D1124CE018B5C9C4F63
:103850000E9464876BED74E0CE018B5F9D4F0E94E8
:103860007A7D61E17CE0CE018B5F9D4F0E94167CEA
:1038700063EE74E00E94FD7BBE016B5C7C4F0E9496
:10388000167C63EE74E00E94FD7BB8010E94167CFA
:1038900041E0BC01CE0101960E94C24FCE010196CB
:1038A0000E94D050CE018B5F9D4F0E940A7DCE01B9
:1038B0008B5C9C4F0E940A7D80910E0D4091E80C1C
:1038C0005091E90C26E0829F400D511D112460911A
:1038D000E50C7091E60C6F5F7F4F81EE9CE00E94DB
:1038E000398F66EC7CE0CE0101960E942692CE01D3
:1038F00001960E944D8686EC9CE00E944341809197
:10390000EC0C9091ED0C892BC9F010920E0D86EC09
:103910009CE00E9443416091E80C7091E90CCE015B
:1039200001960E94717DCE0101960E94EF7FCE012B
:1039300001960E940A7D0E94BD8035C58091E50CEC
:103940009091E60C26E0289FB001299F700D11246C
:10395000665071098091E10C9091E20C680F791F1B
:1039600086EF9CE00E94BA7C0E9486500E94905094
:1039700062EF73E086EF9CE00E944D7B882359F054
:103980000E946E6280E090E00E943E6181E0809340
:103990000F09109210096BEF73E086EF9CE00E9414
:1039A0004D7B8823D9F060E070E088EE9CE00E94B7
:1039B000308F60E070E081EE9CE00E94308F1092CA
:1039C000EA0881E080930D0D8093980810920E0D07
:1039D0001092100910920F090E94496E6FEF73E068
:1039E00086EF9CE00E944D7B882321F080E090E0F0
:1039F0000E94D95864E074E086EF9CE00E944D7B01
:103A0000882391F08EEA9CE00E94714283EF94E05B
:103A10000E949A5061E080E00E94BB5083EE94E0E7
:103A20000E949A500E9490506AE074E086EF9CE0F9
:103A30000E944D7B882321F080E090E00E94826DFF
:103A400068ED73E086EF9CE00E944D7B8823A1F037
:103A500088E293E2A0E0B0E080930208909303082C
:103A6000A0930408B093050810922E0D10922F0D0C
:103A70001092300D1092310D6EE274E086EF9CE0F2
:103A80000E944D7B882309F490C081E080930F0948
:103A9000109210098AE193E09A838983C15DDE4F19
:103AA00019821882CF52D140CE0101960E94EB4775
:103AB0006EEE74E00E94D8429093BD0B8093BC0BD5
:103AC00060E777E0CE018B5F9D4F0E947A7D609129
:103AD000BC0B7091BD0B4AE0CE016A307105DCF47D
:103AE000875F994F0E940F7D61EC77E0CE018D5F7B
:103AF000994F0E947A7DBE01675F794FCE018D5F3D
:103B0000994F0E94167CBC01CE018B5C9C4F0E9499
:103B1000717D11E005C08B5C9C4F0E940F7D10E011
:103B2000BE016B5C7C4FCE018B5F9D4F0E94D17CB0
:103B3000CE018B5C9C4F0E940A7D112351F0CE0177
:103B40008D5F994F0E940A7DCE01875F994F0E9439
:103B50000A7DBE016B5F7D4FCE018B5C9C4F0E9446
:103B6000717D66E077E0CE018B5C9C4F0E946C7BA0
:103B7000BC018EEA9CE00E94A97DCE018B5C9C4F2B
:103B80000E940A7D61E080E00E94BB5085EF96E0D4
:103B90000E949A506091100980910F090E94BB50B9
:103BA000CE018B5F9D4F0E940A7D67E374E086EF34
:103BB0009CE00E944D7B882361F080912C0D9091B8
:103BC0002D0D9093BD0B8093BC0B80E090E00E9484
:103BD00049856FE374E086EF9CE00E944D7B88236B
:103BE00059F080910A0890E09093BD0B8093BC0B34
:103BF00080E090E00E94FE8467E474E086EF9CE041
:103C00000E944D7B882321F080E090E00E94878312
:103C10006EE474E086EF9CE00E944D7B882359F0AF
:103C20008091100890E09093BD0B8093BC0B80E0D6
:103C300090E00E94966066E574E086EF9CE00E944A
:103C40004D7B882391F060910C0870910D08809154
:103C50000E0890910F080E94E9A27093BD0B60932B
:103C6000BC0B80E090E00E94E65F6EE574E086EFBA
:103C70009CE00E944D7B882359F080910B0890E0D6
:103C80009093BD0B8093BC0B80E090E00E94B95FE5
:103C900065E674E086EF9CE00E944D7B882359F036
:103CA0008091110890E09093BD0B8093BC0B80E055
:103CB00090E00E944E5F6CE974E086EF9CE00E9409
:103CC0004D7B882321F18091430D9091440DA0916B
:103CD000450DB091460D80932E0D90932F0DA0931E
:103CE000300DB093310D8091470D9091480DA0910A
:103CF000490DB0914A0D8093320D9093330DA093EE
:103D0000340DB093350D80E090E00E94E0826DE6C6
:103D100074E086EF9CE00E944D7B882359F160E0BF
:103D20008EEA9CE00E94684287EE96E00E949A50DC
:103D30004AE060910D0DCE0101960E943B7DBE01CF
:103D40006F5F7F4F8EEA9CE00E94A97DCE010196B5
:103D50000E940A7D61E080E00E94BB5086ED96E003
:103D60000E949A5010920F091092100960E080E0B2
:103D70000E94BB5063E774E086EF9CE00E944D7B9D
:103D8000882309F406C182E393E09A838983C955A5
:103D9000DF4F19821882C75AD04040910E0950E077
:103DA00060910D0970E0CE0101960E94347E8C0175
:103DB00065EF74E00E94CC427C016BEF74E0C801B7
:103DC0000E94CC428C0160E070E0C7010E94218F0C
:103DD0009093BD0B8093BC0B61E070E0C7010E9423
:103DE000218F9093BF0B8093BE0B62E070E0C70100
:103DF0000E94218F9093C10B8093C00B60E070E014
:103E0000C8010E94218F9093C30B8093C20B61E085
:103E100070E0C8010E94218F9093C50B8093C40B62
:103E200062E070E0C8010E94218F9093C70B8093DD
:103E3000C60B8091C00B9091C10B892B19F060EDDE
:103E400076E002C063ED76E0CE018B5C9C4F0E9471
:103E5000687D8091C00B9091C10B892B19F063EBA9
:103E600076E002C066EB76E0CE018B5F9D4F0E944C
:103E7000687D6091C40B7091C50B4AE0CE018F5AEA
:103E80009A4F0E940F7D6091C20B7091C30B4AE064
:103E9000CE01835D9A4F0E940F7D6091BE0B7091A1
:103EA000BF0B4AE0CE0187519B4F0E940F7D60916E
:103EB000BC0B7091BD0B4AE0CE0183509C4F0E9419
:103EC0000F7DBE0163507C4FCE018B559B4F0E94EE
:103ED000717D6EEC76E0CE018B559B4F0E946C7B22
:103EE000BE0167517B4F0E94167CBE016B5C7C4F0C
:103EF0000E94167C6CEC76E00E946C7BBE01635DD8
:103F00007A4F0E94167C6AEC76E00E946C7BBE01C0
:103F10006F5A7A4F0E94167CBE016B5F7D4F0E94E4
:103F2000167CBC018EEA9CE00E94A97DCE018B55D7
:103F30009B4F0E940A7DCE0183509C4F0E940A7DB8
:103F4000CE0187519B4F0E940A7DCE01835D9A4F1F
:103F50000E940A7DCE018F5A9A4F0E940A7D61E02D
:103F600080E00E94BB5089EB96E00E949A5083E06B
:103F700080930F091092100960E00E94BB50CE019F
:103F80008B5F9D4F0E940A7DCE018B5C9C4F0E94EF
:103F90000A7D6CE774E086EF9CE00E944D7B811106
:103FA00019C064E874E086EF9CE00E944D7B8111AB
:103FB00011C06CE874E086EF9CE00E944D7B81119B
:103FC00009C064E974E086EF9CE00E944D7B882381
:103FD00009F451C160E777E0CE018B559B4F0E94F9
:103FE0007A7D60E777E0CE0183509C4F0E947A7D16
:103FF00060E777E0CE018B5C9C4F0E947A7D60E7A2
:1040000077E0CE018B5F9D4F0E947A7D84E193E043
:104010009A838983CD5FDD4F19821882C350D240C5
:1040200080910E09811103C081E080930E094091B7
:104030000E0950E060910D0970E0CE0101960E94DA
:10404000347E6FEF74E00E94CC428C0160E070E03F
:104050000E94158F60E070E00E94218F9093BD0B4D
:104060008093BC0B60E070E0C8010E94158F61E096
:1040700070E00E94218F9093BF0B8093BE0B8091C4
:104080000F09813011F40C94A1398091BC0B9091EF
:10409000BD0B8D30910514F40C94C339BC016C50E8
:1040A00071094AE0469714F00C94BB39CE01835055
:1040B0009A4F0E940F7D61EC77E0CE0189509A4FB4
:1040C0000E947A7DBE0163507A4FCE0189509A4F8B
:1040D0000E94167CBC01CE0187519B4F0E94717DCE
:1040E00011E0BE0167517B4FCE018B559B4F0E9463
:1040F000D17CCE0187519B4F0E940A7D112351F044
:10410000CE0189509A4F0E940A7DCE0183509A4F6A
:104110000E940A7D80910F09863011F40C941A3A9E
:104120008091BE0B9091BF0B8D30910514F40C94CF
:104130003C3ABC016C5071094AE0469714F00C946B
:10414000343ACE018B519A4F0E940F7D61EC77E09B
:10415000CE0181529A4F0E947A7DBE016B517A4FF7
:10416000CE0181529A4F0E94167CBC01CE0187512C
:104170009B4F0E94717D11E0BE0167517B4FCE01C4
:1041800083509C4F0E94D17CCE0187519B4F0E944F
:104190000A7D112351F0CE0181529A4F0E940A7D6F
:1041A000CE018B519A4F0E940A7D8091BC0B909159
:1041B000BD0B0C9714F00C94933A65ED73E0CE01AF
:1041C0008B5C9C4F0E94A37C8091BE0B9091BF0B97
:1041D0000C9714F00C94973A65ED73E0CE018B5F69
:1041E0009D4F0E94A37CBE016B557B4F8EEA9CE0E5
:1041F0000E94A97DBE016B5C7C4F8EEA9CE00E9410
:10420000A97D81EB96E00E949A50BE0163507C4FDD
:104210008EEA9CE00E94A97DBE016B5F7D4F8EEA15
:104220009CE00E94A97D8AEA96E00E949A5061E093
:1042300080E00E94BB5089E996E00E949A5086E097
:1042400080930F091092100960E00E94BB50CE01CC
:104250008B5F9D4F0E940A7DCE018B5C9C4F0E941C
:104260000A7DCE0183509C4F0E940A7DCE018B5562
:104270009B4F0E940A7D61E174E086EF9CE00E9402
:104280004D7B882321F080E090E00E94345969E161
:1042900074E086EF9CE00E944D7B882329F060E06B
:1042A00070E0CB010E94855B67E274E086EF9CE0E2
:1042B0000E944D7B8823A1F08091140890911508ED
:1042C000A0911608B091170880932E0D90932F0D92
:1042D000A093300DB093310D80E090E00E94D16C3E
:1042E00061E274E086EF9CE00E944D7B882361F0E0
:1042F00080911208909113089093BD0B8093BC0B92
:1043000080E090E00E94D85C6BEB74E086EF9CE06C
:104310000E944D7B882381F065EE74E0CE0101960A
:104320000E947A7D60E070E0CE0101960E94D05636
:10433000CE0101960E940A7D64EA74E086EF9CE05B
:104340000E944D7B882379F066EC74E0CE010196E3
:104350000E947A7D64E0CE0101960E944556CE010E
:1043600001960E940A7D62ED74E086EF9CE00E9457
:104370004D7B8823C1F08EEA9CE00E94714284E16B
:1043800095E00E949A5061E080E00E94BB5083E07B
:1043900095E00E949A5081E08093100980930F0964
:1043A00061E00E94BB506EE571E080E090E00E9409
:1043B000357962EF73E086EF9CE00E944D7B8823A5
:1043C00009F4F2C080910F098D3009F0C9C08091C5
:1043D0001009813009F0C4C00091C60B8091C40B54
:1043E0008831F0F40C33E0F41AE0612F0E9429A325
:1043F000692F40E1849F600D112482E00E944C9857
:10440000802F612F0E9429A3692FA0E18A9F600D50
:10441000112481E00E944C9860E080E00E944C985A
:104420002091BC0B3091BD0B9091BE0BF090C00B56
:104430008FEF8F0D8F3178F59C3068F5205D374018
:10444000283EB3E03B0738F511E0190F0AE0822F50
:10445000602F0E9429A3692FE0E18E9F600D112437
:1044600086E00E944C98812F602F0E9429A3692F1B
:10447000F0E18F9F600D112485E00E944C988F2DF4
:10448000602F0E9429A3692F20E1829F600D1124D3
:1044900084E00E944C982091C00B3091C10BB22F48
:1044A000A091BE0B8091BC0B9091BD0BFC01EF2F36
:1044B000FF27E695E695E69560ED77E0E69FA0019B
:1044C000E79F500DF69F500D1124841B950B8039EA
:1044D00041E0940718F080599140F9CF8436910556
:1044E00069F0883C910551F08C32E1E09E0731F093
:1044F000E1E0AC0143705527452B09F0E0E04FEFB8
:10450000420F4F3128F546E08436910520F084565D
:1045100091094250F9CF480F9695879596958795C2
:10452000942F980F4A2F50E0EE2311F40C94E83AA0
:10453000A33010F00C94B33A91500C94B33AB901F3
:1045400077274DE150E04617570714F00C94CD3A09
:104550008FEF830D873020F4632D83E00E944C9809
:1045600080910F09863031F08D30F1F4809110097F
:104570008130D1F460E777E087E19CE00E94A37C82
:1045800060E777E08DE19CE00E94A37C60E777E044
:1045900083E29CE00E94A37C60E777E089E29CE0F4
:1045A0000E94A37C0E9427826BEF73E086EF9CE061
:1045B0000E944D7B882309F429C780910F098B3015
:1045C00009F024C780911009813009F01FC760E706
:1045D00077E0CE0183539A4F0E947A7D05E31CE079
:1045E000BE0163537A4FCE0101960E94717DB801DE
:1045F000CE0101960E94167CBC01CE0183539A4FD6
:104600000E94BA7CCE0101960E940A7D0A5F1F4F6C
:10461000FCE00F381F0721F760E777E0CE018353F6
:104620009A4F0E944D7B882309F18EEA9CE00E94FC
:10463000714289E896E00E949A5061E080E00E9411
:10464000BB508EE796E00E949A5068EB7BE080E0DA
:1046500090E00E9435798EEA9CE00E94714261E010
:1046600080E00E94BB508DE696E042C06BED74E0A6
:10467000CE0101960E947A7DBE0163537A4FCE012E
:1046800001960E94167C6BE67CE3DC018D919C9187
:104690000E94CE4F182FCE0101960E940A7D112351
:1046A00081F18EEA9CE00E94714281E696E00E94D0
:1046B0009A5061E080E00E94BB5082E596E00E9443
:1046C0009A5068EB7BE080E090E00E9435798EEABA
:1046D0009CE00E947142BE0163537A4F8EEA9CE0D7
:1046E0000E94A97D61E080E00E94BB5081E496E0D9
:1046F0000E949A501092100910920F090E94905037
:1047000080C6CE018E559A4F0E945541CE018957E1
:104710009A4F0E94554170E2672E73E0772EC75181
:10472000DB4F79826882C95ED440C55DDA4F198259
:104730001882CB52D540CE0187519B4F0E943748FB
:104740008C019A83898385E095E09C838B8361E16A
:104750007CE0CE0101960E94764DC8010E946B4616
:104760008EEA9CE00E94714287E295E00E949A5096
:104770006BED74E0CE0101960E947A7D61E17CE0F0
:10478000CE0101960E94167C0E94054ECE01019634
:104790000E940A7D6BED74E0CE0101960E947A7D45
:1047A00061E17CE0CE0101960E94167C6AE075E032
:1047B0000E94FD7B0E94054ECE0101960E940A7D5B
:1047C0006BED74E0CE0101960E947A7D61E17CE0A0
:1047D000CE0101960E94167C6FE075E00E94FD7B81
:1047E0000E94054ECE0101960E940A7D6BED74E099
:1047F000CE0101960E947A7D61E17CE0CE010196B6
:104800000E94167C6DE175E00E94FD7B0E94054EC2
:10481000CE0101960E940A7D6BED74E0CE010196F7
:104820000E947A7D61E17CE0CE0101960E94167CB7
:1048300068E275E00E94FD7B0E94054ECE01019664
:104840000E940A7D6BED74E0CE0101960E947A7D94
:1048500061E17CE0CE0101960E94167C63E375E085
:104860000E94FD7B0E94054ECE0101960E940A7DAA
:104870006BED74E0CE0101960E947A7D61E17CE0EF
:10488000CE0101960E94167C6EE375E00E94FD7BCE
:104890000E94054ECE0101960E940A7D6BED74E0E8
:1048A000CE0101960E947A7D61E17CE0CE01019605
:1048B0000E94167C6AE475E00E94FD7B0E94054E12
:1048C000CE0101960E940A7D6BED74E0CE01019647
:1048D0000E947A7D61E17CE0CE0101960E94167C07
:1048E00067E575E00E94FD7B0E94054ECE010196B2
:1048F0000E940A7D6BED74E0CE0101960E947A7DE4
:1049000061E17CE0CE0101960E94167C64E675E0D0
:104910000E94FD7B0E94054ECE0101960E940A7DF9
:104920006BED74E0CE0101960E947A7D61E17CE03E
:10493000CE0101960E94167C6AE675E00E94FD7B1E
:104940000E94054ECE0101960E940A7D6BED74E037
:10495000CE0101960E947A7D61E17CE0CE01019654
:104960000E94167C64E775E00E94FD7B0E94054E64
:10497000CE0101960E940A7D6BED74E0CE01019696
:104980000E947A7D61E17CE0CE0101960E94167C56
:104990006FE775E00E94FD7B0E94054ECE010196F7
:1049A0000E940A7D6BED74E0CE0101960E947A7D33
:1049B00061E17CE0CE0101960E94167C6CE875E016
:1049C0000E94FD7B0E94054ECE0101960E940A7D49
:1049D0006BED74E0CE0101960E947A7D61E17CE08E
:1049E000CE0101960E94167C68E975E00E94FD7B6D
:1049F0000E94054ECE0101960E940A7D6BED74E087
:104A0000CE0101960E947A7D61E17CE0CE010196A3
:104A10000E94167C65EA75E00E94FD7B0E94054EAF
:104A2000CE0101960E940A7D6BED74E0CE010196E5
:104A30000E947A7D61E17CE0CE0101960E94167CA5
:104A400063EB75E00E94FD7B0E94054ECE0101964E
:104A50000E940A7D6BED74E0CE0101960E947A7D82
:104A600061E17CE0CE0101960E94167C61EC75E06C
:104A70000E94FD7B0E94054ECE0101960E940A7D98
:104A80006BED74E0CE0101960E947A7D61E17CE0DD
:104A9000CE0101960E94167C60ED75E00E94FD7BC0
:104AA0000E94054ECE0101960E940A7D6BED74E0D6
:104AB000CE0101960E947A7D61E17CE0CE010196F3
:104AC0000E94167C67ED75E00E94FD7B0E94054EFA
:104AD000CE0101960E940A7D6BED74E0CE01019635
:104AE0000E947A7D61E17CE0CE0101960E94167CF5
:104AF0006DED75E00E94FD7B0E94054ECE01019692
:104B00000E940A7D6BED74E0CE0101960E947A7DD1
:104B100061E17CE0CE0101960E94167C6BEE75E0AF
:104B20000E94FD7B0E94054ECE0101960E940A7DE7
:104B30006BED74E0CE0101960E947A7D61E17CE02C
:104B4000CE0101960E94167C69EF75E00E94FD7B04
:104B50000E94054ECE0101960E940A7D6BED74E025
:104B6000CE0101960E947A7D61E17CE0CE01019642
:104B70000E94167C67E076E00E94FD7B0E94054E55
:104B8000CE0101960E940A7D6BED74E0CE01019684
:104B90000E947A7D61E17CE0CE0101960E94167C44
:104BA00064E176E00E94FD7B0E94054ECE010196F5
:104BB0000E940A7D6BED74E0CE0101960E947A7D21
:104BC00061E17CE0CE0101960E94167C62E276E013
:104BD0000E94FD7B0E94054ECE0101960E940A7D37
:104BE0006BED74E0CE0101960E947A7D61E17CE07C
:104BF000CE0101960E94167C60E376E00E94FD7B68
:104C00000E94054ECE0101960E940A7D8AE193E042
:104C10009A838983C15DDE4F19821882CF52D140B9
:104C2000CE0101960E949B3D7C018FE396E0A0E0BF
:104C3000AC016A2FC7010E94B54D8C01CB5FDD4FDF
:104C4000F982E882C550D2408EEE94E0C95FDD4F14
:104C500099838883C750D2406CE070E0CE018B5FAF
:104C60009D4F0E949090CB5FDD4FF982E882C55046
:104C7000D24087E496E0C95FDD4F99838883C750AF
:104C8000D24061E070E0CE018B5F9D4F0E9490901A
:104C9000CB5FDD4FF982E882C550D24082E596E0D5
:104CA000C95FDD4F99838883C750D24060E070E0D0
:104CB000CE018B5F9D4F0E949090CB5FDD4FF982BC
:104CC000E882C550D24083EE93E0C95FDD4F9983FF
:104CD0008883C750D24060E070E0CE018B5F9D4F6B
:104CE0000E949090CB5FDD4FF982E882C550D240A0
:104CF00089E596E0C95FDD4F99838883C750D2402C
:104D000040E050E060E070E4CE018B5F9D4F0E9478
:104D1000C063CB5FDD4FF982E882C550D24080E6A8
:104D200096E0C95FDD4F99838883C750D24063E026
:104D300070E0CE018B5F9D4F0E94909046E656E654
:104D400066EB70E4C8010E94E16240E050E060EC74
:104D500070E4C8010E94E16261E080E00E94BB5003
:104D600086E293E0CB5FDD4F99838883C550D240C4
:104D7000C55FDC4F19821882CB50D340CE018B5FC8
:104D80009D4F0E949B3D8C0186E696E0A0E0AC0121
:104D90006A2FC8010E94B54D6C01CB5CDC4F1983B2
:104DA0000883C553D3408FE696E0C95CDC4F9983F6
:104DB0008883C753D34060E070E0CE018B5C9C4F8A
:104DC0000E949090CB5CDC4F19830883C553D3407D
:104DD00087E796E0C95CDC4F99838883C753D3404B
:104DE00062E070E0CE018B5C9C4F0E949090CB5CA7
:104DF000DC4F19830883C553D3408FE796E0C95C25
:104E0000DC4F99838883C753D34065E070E0CE01BF
:104E10008B5C9C4F0E949090CB5CDC4F1983088385
:104E2000C553D34086E896E0C95CDC4F99838883FC
:104E3000C753D34040E050E060E87EE3CE018B5C96
:104E40009C4F0E94C063CB5CDC4F19830883C55321
:104E5000D3408DE896E0C95CDC4F99838883C753C3
:104E6000D34060E070E0CE018B5C9C4F0E9490903C
:104E7000CB5CDC4F19830883C553D34088E996E0A7
:104E8000C95CDC4F99838883C753D3406AE070E0E4
:104E9000CE018B5C9C4F0E9490904AE959E969E9E8
:104EA00070E4C6010E94E16240E050E060EB70E413
:104EB000C6010E94E16282E393E0C350DC4F998314
:104EC0008883CD5FD340CD55DB4F19821882C35AFA
:104ED000D440CE0183509C4F0E949B3D5C0180EAF0
:104EE00096E0A0E0AC016A2FC5010E94B54D4C01CF
:104EF00086EA96E0A0E0AC016A2FC5010E94B54D9C
:104F00006C0161E070E0C4010E94BA6261E070E08F
:104F1000C4010E94BA6261E070E0C4010E94BA62FA
:104F200061E070E0C4010E94BA6261E070E0C60115
:104F30000E94BA6261E070E0C6010E94BA6261E05C
:104F400070E0C6010E94BA6261E070E0C6010E9492
:104F5000BA62CB55DB4F79826882C55AD440C951B9
:104F6000DB4F19821882C75ED440CE018B559B4F10
:104F70000E949B3D4C018FEA96E0A0E0AC016A2FB5
:104F8000C4010E94B54D6C0164EF71E00E94BA62E9
:104F90006CEB72E0C6010E94BA628CE293E0CB5CDB
:104FA000DC4F99838883C553D340C550DC4F1982A9
:104FB0001882CB5FD340CE018B5C9C4F0E949B3DFF
:104FC0006C01C35DDA4F99838883CD52D54082EB63
:104FD00096E0C15DDA4F99838883CF52D54064E66D
:104FE00070E0CE01835D9A4F0E949090C35DDA4FCE
:104FF000D982C882CD52D5408CEE93E0C15DDA4FA4
:1050000099838883CF52D54063E070E0CE01835D01
:105010009A4F0E9490908AE392E0C35DDA4F9983A1
:105020008883CD52D540C15BDA4F19821882CF54A4
:10503000D540CE01835D9A4F0E949B3D3C01CF5AE3
:10504000DA4F99838883C155D54080EE93E0CD5ADD
:10505000DA4F99838883C355D54040E050E0BA01C8
:10506000CE018F5A9A4F0E94C06333243394EEEBE3
:105070004E2EE6E05E2ECF5ADA4FD982C882C15555
:10508000D540CD5ADA4F59824882C355D540632D59
:10509000CE018F5A9A4F0E9417646BED74E0CE01D7
:1050A00084599A4F0E947A7D61E17CE0CE01845957
:1050B0009A4F0E94167C61EC76E00E94FD7B632D86
:1050C0000E94CC7BBC01CE018F5A9A4F0E94717D09
:1050D000A301632DCE018F5A9A4F0E940C4ECE0130
:1050E0008F5A9A4F0E940A7DCE0184599A4F0E948E
:1050F0000A7D85E295E00E949A5081E19BE00E9442
:105100000B4F3394BBE03B12B6CF6BED74E0CE0196
:105110008F5A9A4F0E947A7D61E17CE0CE018F5ACE
:105120009A4F0E94167C6FEC76E00E94FD7B0E94F5
:10513000054ECE018F5A9A4F0E940A7D55245394F2
:105140006BED74E0CE018F5A9A4F0E947A7D61E137
:105150007CE0CE018F5A9A4F0E94167C67ED76E074
:105160000E94FD7B652D0E94CC7B0E94054ECE01E6
:105170008F5A9A4F0E940A7D0E94CA713C016BEDC2
:1051800074E0CE0184599A4F0E947A7D61E17CE0FF
:10519000CE0184599A4F0E94167C67ED76E00E94FA
:1051A000FD7B652D0E94CC7B66EE76E00E94FD7B48
:1051B000BC01CE018F5A9A4F0E94717DB301CE017E
:1051C0008F5A9A4F0E943D70CE018F5A9A4F0E947B
:1051D0000A7DCE0184599A4F0E940A7D5394E5E0DE
:1051E0005E12AECF772473946BED74E0CE018459D8
:1051F0009A4F0E947A7D61E17CE0CE0184599A4FFA
:105200000E94167C61EF76E00E94FD7B672D0E9474
:10521000CC7B6CEE76E00E94FD7BBC01CE018F5A08
:105220009A4F0E94717DB401CE018F5A9A4F0E940D
:105230003D70CE018F5A9A4F0E940A7DCE0184594B
:105240009A4F0E940A7D7394FDE07F12CDCF6BEDE3
:1052500074E0CE0184599A4F0E947A7D61E17CE02E
:10526000CE0184599A4F0E94167C65E077E00E9437
:10527000FD7BBC01CE018F5A9A4F0E94717DB70110
:10528000CE018F5A9A4F0E943D70CE018F5A9A4F8D
:105290000E940A7DCE0184599A4F0E940A7D6BEDCF
:1052A00074E0CE0184599A4F0E947A7D61E17CE0DE
:1052B000CE0184599A4F0E94167C6FE077E00E94DD
:1052C000FD7BBC01CE018F5A9A4F0E94717DB801BF
:1052D000CE018F5A9A4F0E943D70CE018F5A9A4F3D
:1052E0000E940A7DCE0184599A4F0E940A7D6BED7F
:1052F00074E0CE0184599A4F0E947A7D61E17CE08E
:10530000CE0184599A4F0E94167C6DE177E00E948D
:10531000FD7BBC01CE018F5A9A4F0E94717DB60170
:10532000CE018F5A9A4F0E943D70CE018F5A9A4FEC
:105330000E940A7DCE0184599A4F0E940A7D6BED2E
:1053400074E0CE0184599A4F0E947A7D61E17CE03D
:10535000CE0184599A4F0E94167C67E277E00E9442
:10536000FD7BBC01CE018F5A9A4F0E94717DB50121
:10537000CE018F5A9A4F0E943D70CE018F5A9A4F9C
:105380000E940A7DCE0184599A4F0E940A7D64E2F0
:1053900075E086EF9CE00E947B7C0E94B3518EEA10
:1053A0009CE00E9471426BED74E0CE018F5A9A4FDF
:1053B0000E947A7D61E17CE0CE018F5A9A4F0E9473
:1053C000167C41E0BC01CE0184599A4F0E94C24F25
:1053D000CE018F5A9A4F0E940A7DBE0164597A4FBE
:1053E000CE018F5A9A4F0E942692CE018F5A9A4F21
:1053F0000E944D86CE0184599A4F0E9443410E94DB
:10540000D180CE0183539A4F0E940A7D6FEF73E0E3
:1054100086EF9CE00E944D7B882309F4DAC08091DE
:105420000F09893009F0C9C080911009813009F055
:10543000C4C080910E0DE091E80CF091E90C26E0DB
:10544000829FE00DF11D1124248135818091150C7E
:105450009091160C2817390739F580819181609158
:10546000110C7091120C009719F061157105B9F4C7
:105470006115710551F0232B09F49DC0DB018C915E
:1054800090E09195819591090CC0009709F493C023
:10549000232B09F490C0FC01808190E002C00E949F
:1054A000A8A5892B09F487C08EEA9CE00E9471426E
:1054B0000E94B35188E395E00E949A5000E412E004
:1054C000CB5FDD4F19830883C550D240C85FDD4FE5
:1054D00019821882C850D24080E091E0C65FDD4F4B
:1054E00099838883CA50D24041E062E377E0CE01DD
:1054F00001960E94D276CE0101960E94D05066ECB1
:105500007CE0CE0101960E948F7DBE016F5F7F4FD0
:10551000CE018B5F9D4F0E9417567C01CE010196F4
:105520000E940A7D80910E0D6091E80C7091E90C4B
:10553000F6E08F9F600D711D1124FA82E98285E0EB
:1055400095E09C838B83CE0101960E94764D86EC7C
:105550009CE00E944341C7010E946B461092EA08FA
:1055600010920E0D81E08093980880930D0D60E0FD
:1055700070E088EE9CE00E94308F60E070E081EE89
:105580009CE00E94308F0E94F342CB5FDD4F198375
:105590000883C550D240C85FDD4F88819981C850CB
:1055A000D240009751F0DC010C9111961C910E94A1
:1055B00001A4C801F6CF0E94278280910F09813093
:1055C00031F0893031F480911009813011F40E945A
:1055D000278264E074E086EF9CE00E944D7B882384
:1055E00009F481C180910F098B3009F070C11091CD
:1055F0001009113009F06BC18EEA9CE00E947142E3
:1056000087E595E00E949A5061E080E00E94BB50DF
:1056100089E495E00E949A508AE193E0CB5FDD4FE8
:1056200099838883C550D240CD5CDC4F19821882A3
:10563000C353D340CE018B5F9D4F0E94EB477C014B
:1056400010933D0D9A83898387E496E09C838B8336
:1056500061E0CE0101960E94176410921B0DFA8240
:10566000E98283EE93E09C838B8360E0CE01019618
:105670000E94176410923E0DFA82E98282E596E05C
:105680009C838B8360E0CE0101960E94176461E0E9
:10569000C7010E94E96F82E393E0CB5CDC4F998302
:1056A0008883C553D340C552DC4F19821882CB5D25
:1056B000D340CE018B5C9C4F0E94A1467C0110938D
:1056C0000F0D66EA76E00E943E639A8389831C820E
:1056D0001B8261E0CE0101960E94F6631093100DCB
:1056E00066EA76E0C7010E943E639A83898381E07F
:1056F00090E09C838B8361E0CE0101960E94F6636B
:105700001093110D66EA76E0C7010E943E639A830A
:10571000898382E090E09C838B8361E0CE010196D7
:105720000E94F6631093120D66EA76E0C7010E94AC
:105730003E639A83898383E090E09C838B8361E05E
:10574000CE0101960E94F6630E947C53C350DC4F49
:105750002883CD5FD340C250DC4F3883CE5FD34027
:10576000C150DC4F4883CF5FD340C050DC4F5883DB
:10577000C050D440CF5FDB4F6883C150D440CE5F70
:10578000DB4F7883C250D440CD5FDB4F8883C3505A
:10579000D440CC5FDB4F9883C450D44091502FE06D
:1057A000822E2DE0922E37E1A32E3DE0B32E43E171
:1057B000242E4DE0342ECC24C394D12C64E1662EEB
:1057C00063E0762E092F10E07A826982CD5FDD4F8B
:1057D00019821882C350D240F40141914F0150E028
:1057E000B601CE0101960E94347E2C016FEF74E069
:1057F0000E943E63B8010E94158F60E070E00E9435
:105800005863D5018D935D016FEF74E0C2010E9472
:105810003E63B8010E94158F61E070E00E945863FA
:10582000F10181931F01FFEFCF1ADF0A25E0C216B5
:10583000D10451F6C7010E94987E80E293E09A83DA
:10584000898325961FAE1EAE259760913D0DCE0132
:1058500001960E9495478C016FEA76E00E943E63B4
:1058600060E070E00E94218F90933B0D80933A0D91
:105870006FEA76E0C8010E943E6361E070E00E943A
:10588000218F9093390D8093380D0E946F7960932A
:105890004B0D70934C0D80934D0D90934E0D609376
:1058A00028087093290880932A0890932B08609306
:1058B0002008709321088093220890932308609316
:1058C00024087093250880932608909327088091D8
:1058D0000F09813031F08B3031F480911009813023
:1058E00011F40E9427826AE074E086EF9CE00E9437
:1058F0004D7B8823E1F180910F098D3061F5809116
:105900001009813041F58AE193E09A838983C15D72
:10591000DE4F19821882CF52D140CE0101960E94EB
:10592000EB478C0160913E0DCB5FDD4F99838883FF
:10593000C550D24082E596E0C95FDD4F99838883E8
:10594000C750D240CE018B5F9D4F0E94176461E02B
:10595000C8010E94E96F80910F09813031F08D30CC
:1059600031F480911009813011F40E94278268ED92
:1059700073E086EF9CE00E944D7B882309F44DC0C4
:1059800080910F098D30E9F5809110098130C9F5BA
:105990008EEA9CE00E94714286E293E09A838983BA
:1059A000C95FDE4F19821882C750D140CE010196DF
:1059B0000E9449478C0140913F0D5091400D6091EC
:1059C000410D7091420D40939A0850939B0860934B
:1059D0009C0870939D08CB5FDD4F99838883C550E9
:1059E000D2408FE696E0C95FDD4F99838883C75028
:1059F000D240CE018B5F9D4F0E946663C8010E941A
:105A0000F06080910F09813031F08D3031F4809158
:105A10001009813011F40E9427826EE274E086EF53
:105A20009CE00E944D7B882309F471C180910F098D
:105A30008D3009F05CC180911009813009F057C1A7
:105A40008EEA9CE00E9471428AE193E09A83898306
:105A5000C15DDE4F19821882CF52D140CE0101962E
:105A60000E94EB478C01E090BC0BF090BD0B6EEEFA
:105A700074E00E94D842E816F9060CF076C083E381
:105A800096E00E949A5061E080E00E94BB5082E262
:105A900096E00E949A50A090BC0BB090BD0B6EEEA9
:105AA00074E0C8010E94D8426C01EE24E394F12C0A
:105AB0002F2D30E0C216D3060CF452C02A153B0538
:105AC0000CF448C04AE06F2DCE018B5F9D4F0E94C1
:105AD0003B7D4AE06E2DCE018B5C9C4F0E943B7D4E
